:100000000C9436000C945E000C945E000C945E0020
:100010000C945E000C945E000C945E000C945E00E8
:100020000C945E000C945E000C945E000C945E00D8
:100030000C945E000C945E000C945E000C945E00C8
:100040000C9487000C945E000C945E000C945E008F
:100050000C945E000C945E000C945E000C945E00A8
:100060000C945E000C945E007601AA0111241FBE60
:10007000CFEFD8E0DEBFCDBF21E0A8E0B1E001C006
:100080001D92AB31B207E1F711E0A0E0B1E0E2EE82
:10009000F7E002C005900D92A830B107D9F710E043
:1000A000C5E3D0E004C02197FE010E94E701C433FC
:1000B000D107C9F70E94D1000C94E4030C9400000E
:1000C0000F931F93CF93DF93EC0188819981009761
:1000D00029F02A813B812617370788F48B016F5F4F
:1000E0007F4F0E940E03009761F0998388831B83E2
:1000F0000A832C813D81232B11F4FC01108281E0C5
:1001000001C080E0DF91CF911F910F9108951F9260
:100110000F920FB60F9211242F933F938F939F93BB
:10012000AF93BF938091130190911401A091150199
:10013000B09116013091120123E0230F2D3720F4E6
:100140000196A11DB11D05C026E8230F0296A11D31
:10015000B11D209312018093130190931401A09379
:100160001501B093160180910E0190910F01A0919D
:100170001001B09111010196A11DB11D80930E01D6
:1001800090930F01A0931001B0931101BF91AF9113
:100190009F918F913F912F910F900FBE0F901F90C5
:1001A0001895CF93DF9300D000D000D0CDB7DEB745
:1001B000789484B5826084BD84B5816084BD85B542
:1001C000826085BD85B5816085BD80916E0081604E
:1001D00080936E00109281008091810082608093F4
:1001E00081008091810081608093810080918000F6
:1001F0008160809380008091B10084608093B10021
:100200008091B00081608093B00080917A0084601A
:1002100080937A0080917A00826080937A00809146
:100220007A00816080937A0080917A008068809360
:100230007A001092C10080E0C82E80E0D82E1A8289
:1002400019821C821B821E821D8260E070E0CE013A
:1002500001960E94600029813A8181110DC021150B
:10026000310519F0C9010E9485021A8219821E8285
:100270001D821C821B8207C01E821D8266E071E007
:10028000C9010E94DD030D811E81E980FA80E1141D
:10029000F10409F101151105F1F080910C01909123
:1002A0000D01080F191FB80188E091E00E9460005D
:1002B000882389F0209108013091090180910C0177
:1002C00090910D01B701820F931F0E94DD031093DF
:1002D0000D0100930C0189819A810E948502C1144D
:1002E000D10409F4ACCF0E940000A9CF10920901FB
:1002F0001092080110920B0110920A0110920D0148
:1003000010920C0160E070E088E091E00E946000D3
:100310002091080130910901811113C02115310587
:1003200019F0C9010E94850210920901109208017A
:1003300010920D0110920C0110920B0110920A0103
:10034000089510920D0110920C0166E071E0C90150
:100350000C94DD0380910801909109010C948502B1
:100360002F923F924F925F926F927F928F929F92C5
:10037000AF92BF92CF92DF92EF92FF920F931F93B3
:10038000CF93DF93CDB7DEB7CA1BDB0B0FB6F89464
:10039000DEBF0FBECDBF09942A88398848885F84A4
:1003A0006E847D848C849B84AA84B984C884DF8015
:1003B000EE80FD800C811B81AA81B981CE0FD11DF9
:1003C0000FB6F894DEBF0FBECDBFED010895EE0F5E
:1003D000FF1F0590F491E02D09940F931F93CF9385
:1003E000DF938230910510F482E090E0E0911901F2
:1003F000F0911A0120E030E0A0E0B0E0309719F170
:10040000408151810281138148175907C8F0841730
:10041000950769F4109731F012960C931297139682
:100420001C9327C00093190110931A0122C02115B3
:10043000310519F04217530718F49A01BD01EF0175
:10044000DF01F801DBCF21153105F9F0281B390B4D
:100450002430310580F48A819B816115710521F07A
:10046000FB019383828304C090931A018093190146
:10047000FE01329644C0FE01E20FF31F8193919377
:1004800022503109398328833AC0209117013091D5
:100490001801232B41F42091020130910301309384
:1004A00018012093170120910001309101012115BD
:1004B000310541F42DB73EB740910401509105013B
:1004C000241B350BE0911701F0911801E217F30797
:1004D000A0F42E1B3F0B2817390778F0AC014E5FB4
:1004E0005F4F2417350748F04E0F5F1F50931801D8
:1004F000409317018193919302C0E0E0F0E0CF01B7
:10050000DF91CF911F910F910895CF93DF930097C3
:1005100009F481C0FC01329713821282A091190163
:10052000B0911A01109781F420813181820F931FBD
:1005300020911701309118012817390751F5F093D0
:100540001801E093170167C0ED0120E030E0CE17FD
:10055000DF0740F44A815B819E0141155105F1F0AE
:10056000EA01F5CFD383C28340815181840F951F67
:10057000C817D90759F488819981840F951F02966D
:10058000918380838A819B819383828321153105A6
:1005900029F4F0931A01E09319013DC0E901FB83AE
:1005A000EA8349915991C40FD51FEC17FD0761F4F7
:1005B00080819181840F951F0296E9019983888338
:1005C000828193819B838A83E0E0F0E012968D9193
:1005D0009C911397009719F0FD01DC01F7CF8D91E5
:1005E0009C9111979D012E5F3F4F820F931F209189
:1005F0001701309118012817390769F4309729F449
:1006000010921A011092190102C013821282B09343
:100610001801A0931701DF91CF910895A0E0B0E0F9
:10062000E4E1F3E00C94B401EC01009721F4CB0178
:100630000E94ED01B4C0FC01E60FF71F9C0122509F
:100640003109E217F30708F4A8C0D9010D911C91F4
:10065000119706171707B0F00530110508F49BC075
:10066000C80104978617970708F495C0025011092E
:10067000061B170B019311936D937C93CF010E947E
:10068000850289C05B01A01AB10A4C01800E911E3F
:10069000A0911901B0911A01612C712CE12CF12C5F
:1006A000109709F446C08D919C911197A815B90532
:1006B000B1F56C0142E0C40ED11CCA14DB0478F120
:1006C0004C018A189B08640142E0C40ED11C1296AA
:1006D000BC9012971396AC91B5E0CB16D10440F0C4
:1006E000B282A38391828082D9016D937C9309C0E9
:1006F0000E5F1F4F800F911FF90191838083EB2DB7
:10070000FA2FE114F10431F0D7011396FC93EE9324
:10071000129741C0F0931A01E09319013CC068168A
:10072000790608F43C017D0112960D90BC91A02D34
:10073000B7CF809117019091180188169906E1F4BE
:1007400066167706C8F48091000190910101009728
:1007500041F48DB79EB74091040150910501841B6F
:10076000950BE817F907C8F4F0931801E093170107
:10077000F901718360830FC0CB010E94ED017C0100
:10078000009759F0A801BE010E94D403CE010E9437
:100790008502C70104C0CE0102C080E090E0CDB761
:1007A000DEB7EEE00C94D001FB01DC0102C0019049
:1007B0000D9241505040D8F70895FB01DC010190A3
:1007C0000D920020E1F7089510E0C5E3D0E004C0E9
:1007D000FE010E94E7012196C633D107C9F7F894BC
:0207E000FFCF49
:0807E20000001B018000000073
:107E0000112484B714BE81FFF0D085E080938100F7
:107E100082E08093C00088E18093C10086E0809377
:107E2000C20080E18093C4008EE0C9D0259A86E02C
:107E300020E33CEF91E0309385002093840096BBD3
:107E4000B09BFECF1D9AA8958150A9F7CC24DD24C4
:107E500088248394B5E0AB2EA1E19A2EF3E0BF2EE7
:107E6000A2D0813461F49FD0082FAFD0023811F036
:107E7000013811F484E001C083E08DD089C08234E0
:107E800011F484E103C0853419F485E0A6D080C0E4
:107E9000853579F488D0E82EFF2485D0082F10E0AE
:107EA000102F00270E291F29000F111F8ED06801E7
:107EB0006FC0863521F484E090D080E0DECF843638
:107EC00009F040C070D06FD0082F6DD080E0C81688
:107ED00080E7D80618F4F601B7BEE895C0E0D1E017
:107EE00062D089930C17E1F7F0E0CF16F0E7DF06D8
:107EF00018F0F601B7BEE89568D007B600FCFDCFD4
:107F0000A601A0E0B1E02C9130E011968C91119780
:107F100090E0982F8827822B932B1296FA010C0160
:107F200087BEE89511244E5F5F4FF1E0A038BF0790
:107F300051F7F601A7BEE89507B600FCFDCF97BE46
:107F4000E89526C08437B1F42ED02DD0F82E2BD052
:107F50003CD0F601EF2C8F010F5F1F4F84911BD097
:107F6000EA94F801C1F70894C11CD11CFA94CF0C13
:107F7000D11C0EC0853739F428D08EE10CD085E9AC
:107F80000AD08FE07ACF813511F488E018D01DD067
:107F900080E101D065CF982F8091C00085FFFCCF94
:107FA0009093C60008958091C00087FFFCCF809118
:107FB000C00084FD01C0A8958091C6000895E0E648
:107FC000F0E098E1908380830895EDDF803219F02E
:107FD00088E0F5DFFFCF84E1DECF1F93182FE3DFCA
:107FE0001150E9F7F2DF1F91089580E0E8DFEE27F6
:047FF000FF270994CA
:027FFE00040479
:0400000300007E007B
:00000001FF
